:100000000C9434000C9449000C9449000C94490061
:100010000C9449000C9449000C9449000C9449003C
:100020000C9449000C9449000C9449000C9449002C
:100030000C9449000C9449000C9449000C9449001C
:100040000C9449000C9449000C9449000C9449000C
:100050000C9449000C9449000C9449000C944900FC
:100060000C9449000C94490011241FBECFEFD8E036
:10007000DEBFCDBF11E0A0E0B1E0E0E3F2E002C0FE
:1000800005900D92A635B107D9F70E9404010C9492
:1000900016010C9400006FEF83E00C94A40060E85C
:1000A00080E10E94A40060E881E10E94A40060E871
:1000B00082E10C94A4006CEA81EB0C94A40060E053
:1000C00083E00C94A4000F931F93CF93DF938C01D4
:1000D000D62FC0E0CD1748F4F801EC0FF11D618177
:1000E00080810E94A400CE5FF5CFDF91CF911F9158
:1000F0000F91089584EA8093BC008091BC0087FF33
:10010000FCCF8091B900887F089584E98093BC007A
:100110008091BC0084FDFCCF08958093BB0084E8EF
:100120008093BC008091BC0087FFFCCF8091B90018
:10013000887F089584E88093BC008091BC0087FF8D
:10014000FCCF8091BB000895CF93DF93D82FC62FAB
:100150000E947A00883099F480EC0E948D008831EA
:1001600081F48D2F0E948D00883269F48C2F0E94BB
:100170008D00883251F40E94850080E007C081E044
:1001800005C082E003C083E001C084E0DF91CF912D
:1001900008951F93CF93DF93182FEB010E947A00ED
:1001A0008830D1F480EC0E948D008831B9F4812F21
:1001B0000E948D008832A1F40E947A00803191F46F
:1001C00081EC0E948D00803479F40E949A0088832B
:1001D0000E94850080E009C081E007C082E005C080
:1001E00083E003C084E001C085E0DF91CF911F91DF
:1001F00008958CE58093B8001092B9008FEF80933A
:10020000BB001092640008950E94F9000E944B0008
:100210000E944F0066E580E091E00E9463000E942A
:100220005B000E945F0080E090E00895F894FFCFAB
:10023000100F110F120F1A001B011C001D0E1E00C3
:100240001F00200021002200230124002500260099
:100250002700280029002A002B7D2C002DC62E0106
:100260002F00300031633200337D340035C6360153
:100270003700380039633A003B7D3C003DC63E0103
:060280003F004000416355
:00000001FF
